{
  "contractName": "Quicky",
  "abi": [
    {
      "inputs": [],
      "payable": false,
      "stateMutability": "nonpayable",
      "type": "constructor"
    },
    {
      "constant": true,
      "inputs": [
        {
          "internalType": "address",
          "name": "",
          "type": "address"
        }
      ],
      "name": "companies",
      "outputs": [
        {
          "internalType": "uint256",
          "name": "id",
          "type": "uint256"
        },
        {
          "internalType": "address",
          "name": "ac",
          "type": "address"
        },
        {
          "internalType": "string",
          "name": "name",
          "type": "string"
        },
        {
          "internalType": "string",
          "name": "identity",
          "type": "string"
        },
        {
          "internalType": "string",
          "name": "website",
          "type": "string"
        }
      ],
      "payable": false,
      "stateMutability": "view",
      "type": "function"
    },
    {
      "constant": true,
      "inputs": [
        {
          "internalType": "uint256",
          "name": "",
          "type": "uint256"
        }
      ],
      "name": "company_list",
      "outputs": [
        {
          "internalType": "address",
          "name": "",
          "type": "address"
        }
      ],
      "payable": false,
      "stateMutability": "view",
      "type": "function"
    },
    {
      "constant": true,
      "inputs": [
        {
          "internalType": "address",
          "name": "",
          "type": "address"
        }
      ],
      "name": "is_company",
      "outputs": [
        {
          "internalType": "bool",
          "name": "",
          "type": "bool"
        }
      ],
      "payable": false,
      "stateMutability": "view",
      "type": "function"
    },
    {
      "constant": true,
      "inputs": [
        {
          "internalType": "address",
          "name": "",
          "type": "address"
        }
      ],
      "name": "is_person",
      "outputs": [
        {
          "internalType": "bool",
          "name": "",
          "type": "bool"
        }
      ],
      "payable": false,
      "stateMutability": "view",
      "type": "function"
    },
    {
      "constant": true,
      "inputs": [],
      "name": "no_of_companies",
      "outputs": [
        {
          "internalType": "uint256",
          "name": "",
          "type": "uint256"
        }
      ],
      "payable": false,
      "stateMutability": "view",
      "type": "function"
    },
    {
      "constant": true,
      "inputs": [],
      "name": "no_of_persons",
      "outputs": [
        {
          "internalType": "uint256",
          "name": "",
          "type": "uint256"
        }
      ],
      "payable": false,
      "stateMutability": "view",
      "type": "function"
    },
    {
      "constant": true,
      "inputs": [],
      "name": "no_of_records",
      "outputs": [
        {
          "internalType": "uint256",
          "name": "",
          "type": "uint256"
        }
      ],
      "payable": false,
      "stateMutability": "view",
      "type": "function"
    },
    {
      "constant": true,
      "inputs": [
        {
          "internalType": "uint256",
          "name": "",
          "type": "uint256"
        }
      ],
      "name": "person_list",
      "outputs": [
        {
          "internalType": "address",
          "name": "",
          "type": "address"
        }
      ],
      "payable": false,
      "stateMutability": "view",
      "type": "function"
    },
    {
      "constant": true,
      "inputs": [
        {
          "internalType": "address",
          "name": "",
          "type": "address"
        }
      ],
      "name": "persons",
      "outputs": [
        {
          "internalType": "uint256",
          "name": "id",
          "type": "uint256"
        },
        {
          "internalType": "address",
          "name": "ac",
          "type": "address"
        },
        {
          "internalType": "string",
          "name": "name",
          "type": "string"
        },
        {
          "internalType": "string",
          "name": "identity",
          "type": "string"
        }
      ],
      "payable": false,
      "stateMutability": "view",
      "type": "function"
    },
    {
      "constant": true,
      "inputs": [
        {
          "internalType": "uint256",
          "name": "",
          "type": "uint256"
        }
      ],
      "name": "record_list",
      "outputs": [
        {
          "internalType": "uint256",
          "name": "id",
          "type": "uint256"
        },
        {
          "internalType": "string",
          "name": "proof",
          "type": "string"
        },
        {
          "internalType": "address",
          "name": "employee",
          "type": "address"
        },
        {
          "internalType": "string",
          "name": "employer",
          "type": "string"
        },
        {
          "internalType": "enum Quicky.State",
          "name": "state",
          "type": "uint8"
        }
      ],
      "payable": false,
      "stateMutability": "view",
      "type": "function"
    },
    {
      "constant": true,
      "inputs": [
        {
          "internalType": "uint256",
          "name": "",
          "type": "uint256"
        }
      ],
      "name": "records",
      "outputs": [
        {
          "internalType": "uint256",
          "name": "id",
          "type": "uint256"
        },
        {
          "internalType": "string",
          "name": "proof",
          "type": "string"
        },
        {
          "internalType": "address",
          "name": "employee",
          "type": "address"
        },
        {
          "internalType": "string",
          "name": "employer",
          "type": "string"
        },
        {
          "internalType": "enum Quicky.State",
          "name": "state",
          "type": "uint8"
        }
      ],
      "payable": false,
      "stateMutability": "view",
      "type": "function"
    },
    {
      "constant": false,
      "inputs": [
        {
          "internalType": "string",
          "name": "_name",
          "type": "string"
        },
        {
          "internalType": "string",
          "name": "_identity",
          "type": "string"
        }
      ],
      "name": "createPerson",
      "outputs": [],
      "payable": false,
      "stateMutability": "nonpayable",
      "type": "function"
    },
    {
      "constant": false,
      "inputs": [
        {
          "internalType": "string",
          "name": "_name",
          "type": "string"
        },
        {
          "internalType": "string",
          "name": "_identity",
          "type": "string"
        },
        {
          "internalType": "string",
          "name": "_website",
          "type": "string"
        }
      ],
      "name": "createCompany",
      "outputs": [],
      "payable": false,
      "stateMutability": "nonpayable",
      "type": "function"
    },
    {
      "constant": false,
      "inputs": [
        {
          "internalType": "string",
          "name": "_employer",
          "type": "string"
        },
        {
          "internalType": "string",
          "name": "_proof",
          "type": "string"
        }
      ],
      "name": "createRecord",
      "outputs": [],
      "payable": false,
      "stateMutability": "nonpayable",
      "type": "function"
    },
    {
      "constant": true,
      "inputs": [],
      "name": "getPersonCount",
      "outputs": [
        {
          "internalType": "uint256",
          "name": "",
          "type": "uint256"
        }
      ],
      "payable": false,
      "stateMutability": "view",
      "type": "function"
    },
    {
      "constant": true,
      "inputs": [],
      "name": "getCompanyCount",
      "outputs": [
        {
          "internalType": "uint256",
          "name": "",
          "type": "uint256"
        }
      ],
      "payable": false,
      "stateMutability": "view",
      "type": "function"
    },
    {
      "constant": true,
      "inputs": [],
      "name": "getRecordCount",
      "outputs": [
        {
          "internalType": "uint256",
          "name": "",
          "type": "uint256"
        }
      ],
      "payable": false,
      "stateMutability": "view",
      "type": "function"
    },
    {
      "constant": true,
      "inputs": [
        {
          "internalType": "address",
          "name": "_addr",
          "type": "address"
        }
      ],
      "name": "check_is_person",
      "outputs": [
        {
          "internalType": "bool",
          "name": "",
          "type": "bool"
        }
      ],
      "payable": false,
      "stateMutability": "view",
      "type": "function"
    },
    {
      "constant": true,
      "inputs": [
        {
          "internalType": "address",
          "name": "_addr",
          "type": "address"
        }
      ],
      "name": "check_is_company",
      "outputs": [
        {
          "internalType": "bool",
          "name": "",
          "type": "bool"
        }
      ],
      "payable": false,
      "stateMutability": "view",
      "type": "function"
    },
    {
      "constant": true,
      "inputs": [
        {
          "internalType": "uint256",
          "name": "i",
          "type": "uint256"
        }
      ],
      "name": "getRecord",
      "outputs": [
        {
          "internalType": "string",
          "name": "",
          "type": "string"
        },
        {
          "internalType": "address",
          "name": "",
          "type": "address"
        },
        {
          "internalType": "string",
          "name": "",
          "type": "string"
        },
        {
          "internalType": "enum Quicky.State",
          "name": "",
          "type": "uint8"
        }
      ],
      "payable": false,
      "stateMutability": "view",
      "type": "function"
    },
    {
      "constant": true,
      "inputs": [
        {
          "internalType": "address",
          "name": "_addr",
          "type": "address"
        }
      ],
      "name": "getName",
      "outputs": [
        {
          "internalType": "string",
          "name": "",
          "type": "string"
        }
      ],
      "payable": false,
      "stateMutability": "view",
      "type": "function"
    }
  ],
  "bytecode": "0x608060405234801561001057600080fd5b5060008081905550600060018190555060006002819055506124ef806100376000396000f3fe608060405234801561001057600080fd5b50600436106101375760003560e01c80638ada2cf6116100b8578063c090b4df1161007c578063c090b4df14610d7d578063ca267f2814610ecf578063dd7a753814610eed578063f078264014610f49578063f8db7adf14610f67578063fe90ead714610f8557610137565b80638ada2cf6146109e257806390a98af014610b455780639f609e2d14610ba1578063aa3151a114610bbf578063b414bd9f14610c1b57610137565b806348c190dc116100ff57806348c190dc146106045780635fd4b08a146106605780636091e2d31461071d57806368e84bba1461078b5780637b60626d146107f957610137565b806303e9e6091461013c5780631ea89fb6146102975780631ed52ed8146102b557806334461067146102d3578063355e6ce814610435575b600080fd5b6101686004803603602081101561015257600080fd5b81019080803590602001909291905050506110d7565b60405180806020018573ffffffffffffffffffffffffffffffffffffffff1673ffffffffffffffffffffffffffffffffffffffff168152602001806020018460028111156101b257fe5b60ff168152602001838103835287818151815260200191508051906020019080838360005b838110156101f25780820151818401526020810190506101d7565b50505050905090810190601f16801561021f5780820380516001836020036101000a031916815260200191505b50838103825285818151815260200191508051906020019080838360005b8381101561025857808201518184015260208101905061023d565b50505050905090810190601f1680156102855780820380516001836020036101000a031916815260200191505b50965050505050505060405180910390f35b61029f6112cd565b6040518082815260200191505060405180910390f35b6102bd6112d3565b6040518082815260200191505060405180910390f35b6102ff600480360360208110156102e957600080fd5b81019080803590602001909291905050506112dc565b60405180868152602001806020018573ffffffffffffffffffffffffffffffffffffffff1673ffffffffffffffffffffffffffffffffffffffff1681526020018060200184600281111561034f57fe5b60ff168152602001838103835287818151815260200191508051906020019080838360005b8381101561038f578082015181840152602081019050610374565b50505050905090810190601f1680156103bc5780820380516001836020036101000a031916815260200191505b50838103825285818151815260200191508051906020019080838360005b838110156103f55780820151818401526020810190506103da565b50505050905090810190601f1680156104225780820380516001836020036101000a031916815260200191505b5097505050505050505060405180910390f35b6104776004803603602081101561044b57600080fd5b81019080803573ffffffffffffffffffffffffffffffffffffffff16906020019092919050505061146f565b604051808681526020018573ffffffffffffffffffffffffffffffffffffffff1673ffffffffffffffffffffffffffffffffffffffff168152602001806020018060200180602001848103845287818151815260200191508051906020019080838360005b838110156104f75780820151818401526020810190506104dc565b50505050905090810190601f1680156105245780820380516001836020036101000a031916815260200191505b50848103835286818151815260200191508051906020019080838360005b8381101561055d578082015181840152602081019050610542565b50505050905090810190601f16801561058a5780820380516001836020036101000a031916815260200191505b50848103825285818151815260200191508051906020019080838360005b838110156105c35780820151818401526020810190506105a8565b50505050905090810190601f1680156105f05780820380516001836020036101000a031916815260200191505b509850505050505050505060405180910390f35b6106466004803603602081101561061a57600080fd5b81019080803573ffffffffffffffffffffffffffffffffffffffff16906020019092919050505061168d565b604051808215151515815260200191505060405180910390f35b6106a26004803603602081101561067657600080fd5b81019080803573ffffffffffffffffffffffffffffffffffffffff1690602001909291905050506116ad565b6040518080602001828103825283818151815260200191508051906020019080838360005b838110156106e25780820151818401526020810190506106c7565b50505050905090810190601f16801561070f5780820380516001836020036101000a031916815260200191505b509250505060405180910390f35b6107496004803603602081101561073357600080fd5b8101908080359060200190929190505050611791565b604051808273ffffffffffffffffffffffffffffffffffffffff1673ffffffffffffffffffffffffffffffffffffffff16815260200191505060405180910390f35b6107b7600480360360208110156107a157600080fd5b81019080803590602001909291905050506117cd565b604051808273ffffffffffffffffffffffffffffffffffffffff1673ffffffffffffffffffffffffffffffffffffffff16815260200191505060405180910390f35b6109e06004803603606081101561080f57600080fd5b810190808035906020019064010000000081111561082c57600080fd5b82018360208201111561083e57600080fd5b8035906020019184600183028401116401000000008311171561086057600080fd5b91908080601f016020809104026020016040519081016040528093929190818152602001838380828437600081840152601f19601f820116905080830192505050505050509192919290803590602001906401000000008111156108c357600080fd5b8201836020820111156108d557600080fd5b803590602001918460018302840111640100000000831117156108f757600080fd5b91908080601f016020809104026020016040519081016040528093929190818152602001838380828437600081840152601f19601f8201169050808301925050505050505091929192908035906020019064010000000081111561095a57600080fd5b82018360208201111561096c57600080fd5b8035906020019184600183028401116401000000008311171561098e57600080fd5b91908080601f016020809104026020016040519081016040528093929190818152602001838380828437600081840152601f19601f820116905080830192505050505050509192919290505050611809565b005b610a24600480360360208110156109f857600080fd5b81019080803573ffffffffffffffffffffffffffffffffffffffff169060200190929190505050611b85565b604051808581526020018473ffffffffffffffffffffffffffffffffffffffff1673ffffffffffffffffffffffffffffffffffffffff1681526020018060200180602001838103835285818151815260200191508051906020019080838360005b83811015610aa0578082015181840152602081019050610a85565b50505050905090810190601f168015610acd5780820380516001836020036101000a031916815260200191505b50838103825284818151815260200191508051906020019080838360005b83811015610b06578082015181840152602081019050610aeb565b50505050905090810190601f168015610b335780820380516001836020036101000a031916815260200191505b50965050505050505060405180910390f35b610b8760048036036020811015610b5b57600080fd5b81019080803573ffffffffffffffffffffffffffffffffffffffff169060200190929190505050611d05565b604051808215151515815260200191505060405180910390f35b610ba9611d5b565b6040518082815260200191505060405180910390f35b610c0160048036036020811015610bd557600080fd5b81019080803573ffffffffffffffffffffffffffffffffffffffff169060200190929190505050611d61565b604051808215151515815260200191505060405180910390f35b610c4760048036036020811015610c3157600080fd5b8101908080359060200190929190505050611db7565b60405180868152602001806020018573ffffffffffffffffffffffffffffffffffffffff1673ffffffffffffffffffffffffffffffffffffffff16815260200180602001846002811115610c9757fe5b60ff168152602001838103835287818151815260200191508051906020019080838360005b83811015610cd7578082015181840152602081019050610cbc565b50505050905090810190601f168015610d045780820380516001836020036101000a031916815260200191505b50838103825285818151815260200191508051906020019080838360005b83811015610d3d578082015181840152602081019050610d22565b50505050905090810190601f168015610d6a5780820380516001836020036101000a031916815260200191505b5097505050505050505060405180910390f35b610ecd60048036036040811015610d9357600080fd5b8101908080359060200190640100000000811115610db057600080fd5b820183602082011115610dc257600080fd5b80359060200191846001830284011164010000000083111715610de457600080fd5b91908080601f016020809104026020016040519081016040528093929190818152602001838380828437600081840152601f19601f82011690508083019250505050505050919291929080359060200190640100000000811115610e4757600080fd5b820183602082011115610e5957600080fd5b80359060200191846001830284011164010000000083111715610e7b57600080fd5b91908080601f016020809104026020016040519081016040528093929190818152602001838380828437600081840152601f19601f820116905080830192505050505050509192919290505050611f57565b005b610ed7612083565b6040518082815260200191505060405180910390f35b610f2f60048036036020811015610f0357600080fd5b81019080803573ffffffffffffffffffffffffffffffffffffffff16906020019092919050505061208d565b604051808215151515815260200191505060405180910390f35b610f516120ad565b6040518082815260200191505060405180910390f35b610f6f6120b7565b6040518082815260200191505060405180910390f35b6110d560048036036040811015610f9b57600080fd5b8101908080359060200190640100000000811115610fb857600080fd5b820183602082011115610fca57600080fd5b80359060200191846001830284011164010000000083111715610fec57600080fd5b91908080601f016020809104026020016040519081016040528093929190818152602001838380828437600081840152601f19601f8201169050808301925050505050505091929192908035906020019064010000000081111561104f57600080fd5b82018360208201111561106157600080fd5b8035906020019184600183028401116401000000008311171561108357600080fd5b91908080601f016020809104026020016040519081016040528093929190818152602001838380828437600081840152601f19601f8201169050808301925050505050505091929192905050506120bd565b005b6060600060606000600a85815481106110ec57fe5b9060005260206000209060050201600101600a868154811061110a57fe5b906000526020600020906005020160020160009054906101000a900473ffffffffffffffffffffffffffffffffffffffff16600a878154811061114957fe5b9060005260206000209060050201600301600a888154811061116757fe5b906000526020600020906005020160040160009054906101000a900460ff16838054600181600116156101000203166002900480601f01602080910402602001604051908101604052809291908181526020018280546001816001161561010002031660029004801561121b5780601f106111f05761010080835404028352916020019161121b565b820191906000526020600020905b8154815290600101906020018083116111fe57829003601f168201915b50505050509350818054600181600116156101000203166002900480601f0160208091040260200160405190810160405280929190818152602001828054600181600116156101000203166002900480156112b75780601f1061128c576101008083540402835291602001916112b7565b820191906000526020600020905b81548152906001019060200180831161129a57829003601f168201915b5050505050915093509350935093509193509193565b60025481565b60008054905090565b6005602052806000526040600020600091509050806000015490806001018054600181600116156101000203166002900480601f01602080910402602001604051908101604052809291908181526020018280546001816001161561010002031660029004801561138e5780601f106113635761010080835404028352916020019161138e565b820191906000526020600020905b81548152906001019060200180831161137157829003601f168201915b5050505050908060020160009054906101000a900473ffffffffffffffffffffffffffffffffffffffff1690806003018054600181600116156101000203166002900480601f0160208091040260200160405190810160405280929190818152602001828054600181600116156101000203166002900480156114525780601f1061142757610100808354040283529160200191611452565b820191906000526020600020905b81548152906001019060200180831161143557829003601f168201915b5050505050908060040160009054906101000a900460ff16905085565b60046020528060005260406000206000915090508060000154908060010160009054906101000a900473ffffffffffffffffffffffffffffffffffffffff1690806002018054600181600116156101000203166002900480601f0160208091040260200160405190810160405280929190818152602001828054600181600116156101000203166002900480156115475780601f1061151c57610100808354040283529160200191611547565b820191906000526020600020905b81548152906001019060200180831161152a57829003601f168201915b505050505090806003018054600181600116156101000203166002900480601f0160208091040260200160405190810160405280929190818152602001828054600181600116156101000203166002900480156115e55780601f106115ba576101008083540402835291602001916115e5565b820191906000526020600020905b8154815290600101906020018083116115c857829003601f168201915b505050505090806004018054600181600116156101000203166002900480601f0160208091040260200160405190810160405280929190818152602001828054600181600116156101000203166002900480156116835780601f1061165857610100808354040283529160200191611683565b820191906000526020600020905b81548152906001019060200180831161166657829003601f168201915b5050505050905085565b60076020528060005260406000206000915054906101000a900460ff1681565b6060600460008373ffffffffffffffffffffffffffffffffffffffff1673ffffffffffffffffffffffffffffffffffffffff1681526020019081526020016000206002018054600181600116156101000203166002900480601f0160208091040260200160405190810160405280929190818152602001828054600181600116156101000203166002900480156117855780601f1061175a57610100808354040283529160200191611785565b820191906000526020600020905b81548152906001019060200180831161176857829003601f168201915b50505050509050919050565b6009818154811061179e57fe5b906000526020600020016000915054906101000a900473ffffffffffffffffffffffffffffffffffffffff1681565b600881815481106117da57fe5b906000526020600020016000915054906101000a900473ffffffffffffffffffffffffffffffffffffffff1681565b600760003373ffffffffffffffffffffffffffffffffffffffff1673ffffffffffffffffffffffffffffffffffffffff16815260200190815260200160002060009054906101000a900460ff16156118c9576040517f08c379a000000000000000000000000000000000000000000000000000000000815260040180806020018281038252601a8152602001807f506572736f6e2063616e2774206265206120436f6d70616e792e00000000000081525060200191505060405180910390fd5b600660003373ffffffffffffffffffffffffffffffffffffffff1673ffffffffffffffffffffffffffffffffffffffff16815260200190815260200160002060009054906101000a900460ff1615611989576040517f08c379a000000000000000000000000000000000000000000000000000000000815260040180806020018281038252601b8152602001807f596f752061726520616c726561647920726567697374657265642e000000000081525060200191505060405180910390fd5b600180600082825401925050819055506040518060a0016040528060015481526020013373ffffffffffffffffffffffffffffffffffffffff16815260200184815260200183815260200182815250600460003373ffffffffffffffffffffffffffffffffffffffff1673ffffffffffffffffffffffffffffffffffffffff1681526020019081526020016000206000820151816000015560208201518160010160006101000a81548173ffffffffffffffffffffffffffffffffffffffff021916908373ffffffffffffffffffffffffffffffffffffffff1602179055506040820151816002019080519060200190611a84929190612415565b506060820151816003019080519060200190611aa1929190612415565b506080820151816004019080519060200190611abe929190612415565b509050506001600660003373ffffffffffffffffffffffffffffffffffffffff1673ffffffffffffffffffffffffffffffffffffffff16815260200190815260200160002060006101000a81548160ff02191690831515021790555060093390806001815401808255809150509060018203906000526020600020016000909192909190916101000a81548173ffffffffffffffffffffffffffffffffffffffff021916908373ffffffffffffffffffffffffffffffffffffffff16021790555050505050565b60036020528060005260406000206000915090508060000154908060010160009054906101000a900473ffffffffffffffffffffffffffffffffffffffff1690806002018054600181600116156101000203166002900480601f016020809104026020016040519081016040528092919081815260200182805460018160011615610100020316600290048015611c5d5780601f10611c3257610100808354040283529160200191611c5d565b820191906000526020600020905b815481529060010190602001808311611c4057829003601f168201915b505050505090806003018054600181600116156101000203166002900480601f016020809104026020016040519081016040528092919081815260200182805460018160011615610100020316600290048015611cfb5780601f10611cd057610100808354040283529160200191611cfb565b820191906000526020600020905b815481529060010190602001808311611cde57829003601f168201915b5050505050905084565b6000600760008373ffffffffffffffffffffffffffffffffffffffff1673ffffffffffffffffffffffffffffffffffffffff16815260200190815260200160002060009054906101000a900460ff169050919050565b60005481565b6000600660008373ffffffffffffffffffffffffffffffffffffffff1673ffffffffffffffffffffffffffffffffffffffff16815260200190815260200160002060009054906101000a900460ff169050919050565b600a8181548110611dc457fe5b9060005260206000209060050201600091509050806000015490806001018054600181600116156101000203166002900480601f016020809104026020016040519081016040528092919081815260200182805460018160011615610100020316600290048015611e765780601f10611e4b57610100808354040283529160200191611e76565b820191906000526020600020905b815481529060010190602001808311611e5957829003601f168201915b5050505050908060020160009054906101000a900473ffffffffffffffffffffffffffffffffffffffff1690806003018054600181600116156101000203166002900480601f016020809104026020016040519081016040528092919081815260200182805460018160011615610100020316600290048015611f3a5780601f10611f0f57610100808354040283529160200191611f3a565b820191906000526020600020905b815481529060010190602001808311611f1d57829003601f168201915b5050505050908060040160009054906101000a900460ff16905085565b60016002600082825401925050819055506040518060a0016040528060025481526020018281526020013373ffffffffffffffffffffffffffffffffffffffff16815260200183815260200160006002811115611fb057fe5b815250600560006002548152602001908152602001600020600082015181600001556020820151816001019080519060200190611fee929190612415565b5060408201518160020160006101000a81548173ffffffffffffffffffffffffffffffffffffffff021916908373ffffffffffffffffffffffffffffffffffffffff1602179055506060820151816003019080519060200190612052929190612415565b5060808201518160040160006101000a81548160ff0219169083600281111561207757fe5b02179055509050505050565b6000600254905090565b60066020528060005260406000206000915054906101000a900460ff1681565b6000600154905090565b60015481565b600660003373ffffffffffffffffffffffffffffffffffffffff1673ffffffffffffffffffffffffffffffffffffffff16815260200190815260200160002060009054906101000a900460ff161561217d576040517f08c379a000000000000000000000000000000000000000000000000000000000815260040180806020018281038252601a8152602001807f436f6d70616e792063616e2774206265206120706572736f6e2e00000000000081525060200191505060405180910390fd5b600760003373ffffffffffffffffffffffffffffffffffffffff1673ffffffffffffffffffffffffffffffffffffffff16815260200190815260200160002060009054906101000a900460ff161561223d576040517f08c379a000000000000000000000000000000000000000000000000000000000815260040180806020018281038252601b8152602001807f596f752061726520616c726561647920726567697374657265642e000000000081525060200191505060405180910390fd5b60016000808282540192505081905550604051806080016040528060005481526020013373ffffffffffffffffffffffffffffffffffffffff16815260200183815260200182815250600360003373ffffffffffffffffffffffffffffffffffffffff1673ffffffffffffffffffffffffffffffffffffffff1681526020019081526020016000206000820151816000015560208201518160010160006101000a81548173ffffffffffffffffffffffffffffffffffffffff021916908373ffffffffffffffffffffffffffffffffffffffff1602179055506040820151816002019080519060200190612332929190612415565b50606082015181600301908051906020019061234f929190612415565b509050506001600760003373ffffffffffffffffffffffffffffffffffffffff1673ffffffffffffffffffffffffffffffffffffffff16815260200190815260200160002060006101000a81548160ff02191690831515021790555060083390806001815401808255809150509060018203906000526020600020016000909192909190916101000a81548173ffffffffffffffffffffffffffffffffffffffff021916908373ffffffffffffffffffffffffffffffffffffffff160217905550505050565b828054600181600116156101000203166002900490600052602060002090601f016020900481019282601f1061245657805160ff1916838001178555612484565b82800160010185558215612484579182015b82811115612483578251825591602001919060010190612468565b5b5090506124919190612495565b5090565b6124b791905b808211156124b357600081600090555060010161249b565b5090565b9056fea265627a7a7231582000fcd7c1a3cbc1464710b8154a46abe6fbb4561690d640afa76a7b689e783bb764736f6c63430005100032",
  "source": "// SPDX-License-Identifier: GPL-3.0\r\n\r\npragma solidity >=0.4.22 <0.8.0;\r\n\r\n\r\n/**\r\n * @title Storage\r\n * @dev Store & retrieve value in a variable\r\n */\r\ncontract Quicky {\r\n    \r\n    uint public no_of_persons;\r\n    uint public no_of_companies;\r\n    uint public no_of_records;\r\n    \r\n    enum State { PENDING,APPROVED,REJECTED}\r\n    \r\n    struct Person {\r\n        uint id;\r\n        address ac;\r\n        string name;\r\n        // hash of ipfs document\r\n        string identity;\r\n        // string company;\r\n        // string start_date;\r\n    }\r\n    \r\n    struct Company {\r\n        uint id;\r\n        address ac;\r\n        string name;\r\n        // hash of ipfs document\r\n        string identity;\r\n        string website;\r\n    }\r\n    struct Record {\r\n        // hash of proof from ipfs\r\n        uint id;\r\n        string proof;\r\n        address employee;\r\n        string employer;\r\n        State state;\r\n    }\r\n    \r\n    mapping(address => Person) public persons;\r\n    mapping(address => Company) public companies;\r\n    mapping(uint => Record) public records;\r\n    mapping(address => bool) public is_company;\r\n    mapping(address => bool) public is_person;\r\n    \r\n    address[] public person_list;\r\n    address[] public company_list;\r\n    Record[] public record_list;\r\n    \r\n    function createPerson(\r\n        string memory _name,\r\n        string memory _identity\r\n    ) \r\n    public{\r\n         require(\r\n            !( is_company[msg.sender] ),\r\n            \"Company can't be a person.\"\r\n        );\r\n        require(\r\n            !( is_person[msg.sender] ),\r\n            \"You are already registered.\"\r\n        );\r\n        no_of_persons += 1;\r\n        persons[msg.sender] = Person(\r\n            no_of_persons, // id\r\n             msg.sender,  // ac\r\n            _name,\r\n            _identity\r\n        );\r\n        is_person[msg.sender] = true;\r\n        person_list.push(msg.sender);\r\n    }\r\n    \r\n    function createCompany(\r\n        string memory _name,\r\n        string memory _identity,\r\n        string memory _website\r\n    ) \r\n    public{\r\n        require(\r\n            !( is_person[msg.sender] ),\r\n            \"Person can't be a Company.\"\r\n        );\r\n        require(\r\n            !( is_company[msg.sender] ),\r\n            \"You are already registered.\"\r\n        );\r\n        no_of_companies += 1;\r\n        companies[msg.sender] = Company(\r\n            no_of_companies, // id\r\n             msg.sender,  // ac\r\n            _name,\r\n            _identity,\r\n            _website\r\n        );\r\n        is_company[msg.sender] = true;\r\n        company_list.push(msg.sender);\r\n    }\r\n    \r\n    function createRecord(\r\n        string memory _employer,\r\n        string memory _proof\r\n    ) \r\n    public{\r\n        // require(\r\n        //     ( is_person[msg.sender] ),\r\n        //     \"Only person can create record\"\r\n        // );\r\n        no_of_records += 1;\r\n        //      uint id;\r\n        //     string proof;\r\n        //     address employee;\r\n        //     string employer;\r\n        //     State state;\r\n        records[no_of_records] = Record(\r\n                 no_of_records,\r\n                _proof,\r\n                msg.sender, // employee\r\n                _employer,\r\n                State.PENDING\r\n        );\r\n    }\r\n    \r\n    constructor() public {\r\n        no_of_persons = 0;\r\n        no_of_companies = 0;\r\n        no_of_records = 0;\r\n    }\r\n\r\n    function getPersonCount() public view returns (uint)\r\n    {\r\n        return no_of_persons;\r\n    }\r\n    function getCompanyCount() public view returns (uint)\r\n    {\r\n        return no_of_companies;\r\n    }\r\n    function getRecordCount() public view returns (uint)\r\n    {\r\n        return no_of_records;\r\n    }\r\n    function check_is_person(address _addr) public view returns (bool){\r\n        return is_person[_addr];\r\n    }\r\n    function check_is_company(address _addr) public view returns (bool){\r\n        return is_company[_addr];\r\n    }\r\n    function getRecord(uint i) public view returns (string memory,address,string memory,State) {\r\n        return (record_list[i].proof, record_list[i].employee, record_list[i].employer,record_list[i].state);\r\n    }\r\n\r\n    function getName(address _addr) public view returns(string memory){\r\n        return companies[_addr].name;\r\n    }\r\n}",
  "sourcePath": "D:/COEP/Hackathon/quicky/src/contracts/Quicky.sol",
  "compiler": {
    "name": "solc",
    "version": "0.5.16+commit.9c3226ce.Emscripten.clang"
  },
  "schemaVersion": "3.2.3",
  "updatedAt": "2021-10-31T03:48:37.695Z",
  "networkType": "ethereum",
  "devdoc": {
    "details": "Store & retrieve value in a variable",
    "methods": {},
    "title": "Storage"
  },
  "userdoc": {
    "methods": {}
  }
}